{
  "_format": "hh-sol-artifact-1",
  "contractName": "DonationContract",
  "sourceName": "contracts/DonationContract.sol",
  "abi": [
    {
      "inputs": [
        {
          "internalType": "address",
          "name": "_treasuryWallet",
          "type": "address"
        }
      ],
      "stateMutability": "nonpayable",
      "type": "constructor"
    },
    {
      "anonymous": false,
      "inputs": [
        {
          "indexed": true,
          "internalType": "address",
          "name": "donor",
          "type": "address"
        },
        {
          "indexed": false,
          "internalType": "uint256",
          "name": "amount",
          "type": "uint256"
        },
        {
          "indexed": false,
          "internalType": "uint256",
          "name": "timestamp",
          "type": "uint256"
        }
      ],
      "name": "DonationReceived",
      "type": "event"
    },
    {
      "anonymous": false,
      "inputs": [
        {
          "indexed": true,
          "internalType": "uint256",
          "name": "donationId",
          "type": "uint256"
        },
        {
          "indexed": true,
          "internalType": "address",
          "name": "donor",
          "type": "address"
        },
        {
          "indexed": false,
          "internalType": "uint256",
          "name": "amount",
          "type": "uint256"
        },
        {
          "indexed": false,
          "internalType": "string",
          "name": "donationType",
          "type": "string"
        },
        {
          "indexed": false,
          "internalType": "string",
          "name": "currency",
          "type": "string"
        },
        {
          "indexed": false,
          "internalType": "uint256",
          "name": "timestamp",
          "type": "uint256"
        }
      ],
      "name": "DonationRecorded",
      "type": "event"
    },
    {
      "anonymous": false,
      "inputs": [
        {
          "indexed": true,
          "internalType": "address",
          "name": "to",
          "type": "address"
        },
        {
          "indexed": false,
          "internalType": "uint256",
          "name": "amount",
          "type": "uint256"
        },
        {
          "indexed": false,
          "internalType": "uint256",
          "name": "timestamp",
          "type": "uint256"
        }
      ],
      "name": "FundsWithdrawn",
      "type": "event"
    },
    {
      "anonymous": false,
      "inputs": [
        {
          "indexed": false,
          "internalType": "address",
          "name": "account",
          "type": "address"
        }
      ],
      "name": "Paused",
      "type": "event"
    },
    {
      "anonymous": false,
      "inputs": [
        {
          "indexed": true,
          "internalType": "bytes32",
          "name": "role",
          "type": "bytes32"
        },
        {
          "indexed": true,
          "internalType": "bytes32",
          "name": "previousAdminRole",
          "type": "bytes32"
        },
        {
          "indexed": true,
          "internalType": "bytes32",
          "name": "newAdminRole",
          "type": "bytes32"
        }
      ],
      "name": "RoleAdminChanged",
      "type": "event"
    },
    {
      "anonymous": false,
      "inputs": [
        {
          "indexed": true,
          "internalType": "bytes32",
          "name": "role",
          "type": "bytes32"
        },
        {
          "indexed": true,
          "internalType": "address",
          "name": "account",
          "type": "address"
        },
        {
          "indexed": true,
          "internalType": "address",
          "name": "sender",
          "type": "address"
        }
      ],
      "name": "RoleGranted",
      "type": "event"
    },
    {
      "anonymous": false,
      "inputs": [
        {
          "indexed": true,
          "internalType": "bytes32",
          "name": "role",
          "type": "bytes32"
        },
        {
          "indexed": true,
          "internalType": "address",
          "name": "account",
          "type": "address"
        },
        {
          "indexed": true,
          "internalType": "address",
          "name": "sender",
          "type": "address"
        }
      ],
      "name": "RoleRevoked",
      "type": "event"
    },
    {
      "anonymous": false,
      "inputs": [
        {
          "indexed": true,
          "internalType": "address",
          "name": "oldWallet",
          "type": "address"
        },
        {
          "indexed": true,
          "internalType": "address",
          "name": "newWallet",
          "type": "address"
        }
      ],
      "name": "TreasuryWalletUpdated",
      "type": "event"
    },
    {
      "anonymous": false,
      "inputs": [
        {
          "indexed": false,
          "internalType": "address",
          "name": "account",
          "type": "address"
        }
      ],
      "name": "Unpaused",
      "type": "event"
    },
    {
      "inputs": [],
      "name": "ADMIN_ROLE",
      "outputs": [
        {
          "internalType": "bytes32",
          "name": "",
          "type": "bytes32"
        }
      ],
      "stateMutability": "view",
      "type": "function"
    },
    {
      "inputs": [],
      "name": "DEFAULT_ADMIN_ROLE",
      "outputs": [
        {
          "internalType": "bytes32",
          "name": "",
          "type": "bytes32"
        }
      ],
      "stateMutability": "view",
      "type": "function"
    },
    {
      "inputs": [],
      "name": "RECORDER_ROLE",
      "outputs": [
        {
          "internalType": "bytes32",
          "name": "",
          "type": "bytes32"
        }
      ],
      "stateMutability": "view",
      "type": "function"
    },
    {
      "inputs": [
        {
          "internalType": "bool",
          "name": "_isAnonymous",
          "type": "bool"
        },
        {
          "internalType": "string",
          "name": "_patientId",
          "type": "string"
        }
      ],
      "name": "donate",
      "outputs": [],
      "stateMutability": "payable",
      "type": "function"
    },
    {
      "inputs": [
        {
          "internalType": "uint256",
          "name": "",
          "type": "uint256"
        }
      ],
      "name": "donations",
      "outputs": [
        {
          "internalType": "address",
          "name": "donor",
          "type": "address"
        },
        {
          "internalType": "uint256",
          "name": "amount",
          "type": "uint256"
        },
        {
          "internalType": "uint256",
          "name": "timestamp",
          "type": "uint256"
        },
        {
          "internalType": "string",
          "name": "donationType",
          "type": "string"
        },
        {
          "internalType": "string",
          "name": "currency",
          "type": "string"
        },
        {
          "internalType": "string",
          "name": "externalTxId",
          "type": "string"
        },
        {
          "internalType": "string",
          "name": "patientId",
          "type": "string"
        },
        {
          "internalType": "bool",
          "name": "isAnonymous",
          "type": "bool"
        }
      ],
      "stateMutability": "view",
      "type": "function"
    },
    {
      "inputs": [
        {
          "internalType": "address",
          "name": "",
          "type": "address"
        },
        {
          "internalType": "uint256",
          "name": "",
          "type": "uint256"
        }
      ],
      "name": "donorDonations",
      "outputs": [
        {
          "internalType": "uint256",
          "name": "",
          "type": "uint256"
        }
      ],
      "stateMutability": "view",
      "type": "function"
    },
    {
      "inputs": [
        {
          "internalType": "address",
          "name": "",
          "type": "address"
        }
      ],
      "name": "donorTotalAmount",
      "outputs": [
        {
          "internalType": "uint256",
          "name": "",
          "type": "uint256"
        }
      ],
      "stateMutability": "view",
      "type": "function"
    },
    {
      "inputs": [],
      "name": "emergencyWithdraw",
      "outputs": [],
      "stateMutability": "nonpayable",
      "type": "function"
    },
    {
      "inputs": [
        {
          "internalType": "uint256",
          "name": "_donationId",
          "type": "uint256"
        }
      ],
      "name": "getDonation",
      "outputs": [
        {
          "internalType": "address",
          "name": "donor",
          "type": "address"
        },
        {
          "internalType": "uint256",
          "name": "amount",
          "type": "uint256"
        },
        {
          "internalType": "uint256",
          "name": "timestamp",
          "type": "uint256"
        },
        {
          "internalType": "string",
          "name": "donationType",
          "type": "string"
        },
        {
          "internalType": "string",
          "name": "currency",
          "type": "string"
        },
        {
          "internalType": "string",
          "name": "externalTxId",
          "type": "string"
        },
        {
          "internalType": "string",
          "name": "patientId",
          "type": "string"
        },
        {
          "internalType": "bool",
          "name": "isAnonymous",
          "type": "bool"
        }
      ],
      "stateMutability": "view",
      "type": "function"
    },
    {
      "inputs": [
        {
          "internalType": "address",
          "name": "_donor",
          "type": "address"
        }
      ],
      "name": "getDonorDonations",
      "outputs": [
        {
          "internalType": "uint256[]",
          "name": "",
          "type": "uint256[]"
        }
      ],
      "stateMutability": "view",
      "type": "function"
    },
    {
      "inputs": [
        {
          "internalType": "address",
          "name": "_donor",
          "type": "address"
        }
      ],
      "name": "getDonorTotal",
      "outputs": [
        {
          "internalType": "uint256",
          "name": "",
          "type": "uint256"
        }
      ],
      "stateMutability": "view",
      "type": "function"
    },
    {
      "inputs": [
        {
          "internalType": "bytes32",
          "name": "role",
          "type": "bytes32"
        }
      ],
      "name": "getRoleAdmin",
      "outputs": [
        {
          "internalType": "bytes32",
          "name": "",
          "type": "bytes32"
        }
      ],
      "stateMutability": "view",
      "type": "function"
    },
    {
      "inputs": [],
      "name": "getStats",
      "outputs": [
        {
          "internalType": "uint256",
          "name": "totalDonations",
          "type": "uint256"
        },
        {
          "internalType": "uint256",
          "name": "totalAmount",
          "type": "uint256"
        },
        {
          "internalType": "uint256",
          "name": "contractBalance",
          "type": "uint256"
        }
      ],
      "stateMutability": "view",
      "type": "function"
    },
    {
      "inputs": [
        {
          "internalType": "bytes32",
          "name": "role",
          "type": "bytes32"
        },
        {
          "internalType": "address",
          "name": "account",
          "type": "address"
        }
      ],
      "name": "grantRole",
      "outputs": [],
      "stateMutability": "nonpayable",
      "type": "function"
    },
    {
      "inputs": [
        {
          "internalType": "bytes32",
          "name": "role",
          "type": "bytes32"
        },
        {
          "internalType": "address",
          "name": "account",
          "type": "address"
        }
      ],
      "name": "hasRole",
      "outputs": [
        {
          "internalType": "bool",
          "name": "",
          "type": "bool"
        }
      ],
      "stateMutability": "view",
      "type": "function"
    },
    {
      "inputs": [],
      "name": "pause",
      "outputs": [],
      "stateMutability": "nonpayable",
      "type": "function"
    },
    {
      "inputs": [],
      "name": "paused",
      "outputs": [
        {
          "internalType": "bool",
          "name": "",
          "type": "bool"
        }
      ],
      "stateMutability": "view",
      "type": "function"
    },
    {
      "inputs": [
        {
          "internalType": "address",
          "name": "_donor",
          "type": "address"
        },
        {
          "internalType": "uint256",
          "name": "_amount",
          "type": "uint256"
        },
        {
          "internalType": "string",
          "name": "_currency",
          "type": "string"
        },
        {
          "internalType": "string",
          "name": "_externalTxId",
          "type": "string"
        },
        {
          "internalType": "string",
          "name": "_patientId",
          "type": "string"
        },
        {
          "internalType": "bool",
          "name": "_isAnonymous",
          "type": "bool"
        }
      ],
      "name": "recordFiatDonation",
      "outputs": [],
      "stateMutability": "nonpayable",
      "type": "function"
    },
    {
      "inputs": [
        {
          "internalType": "bytes32",
          "name": "role",
          "type": "bytes32"
        },
        {
          "internalType": "address",
          "name": "account",
          "type": "address"
        }
      ],
      "name": "renounceRole",
      "outputs": [],
      "stateMutability": "nonpayable",
      "type": "function"
    },
    {
      "inputs": [
        {
          "internalType": "bytes32",
          "name": "role",
          "type": "bytes32"
        },
        {
          "internalType": "address",
          "name": "account",
          "type": "address"
        }
      ],
      "name": "revokeRole",
      "outputs": [],
      "stateMutability": "nonpayable",
      "type": "function"
    },
    {
      "inputs": [
        {
          "internalType": "bytes4",
          "name": "interfaceId",
          "type": "bytes4"
        }
      ],
      "name": "supportsInterface",
      "outputs": [
        {
          "internalType": "bool",
          "name": "",
          "type": "bool"
        }
      ],
      "stateMutability": "view",
      "type": "function"
    },
    {
      "inputs": [],
      "name": "totalDonationsAmount",
      "outputs": [
        {
          "internalType": "uint256",
          "name": "",
          "type": "uint256"
        }
      ],
      "stateMutability": "view",
      "type": "function"
    },
    {
      "inputs": [],
      "name": "totalDonationsCount",
      "outputs": [
        {
          "internalType": "uint256",
          "name": "",
          "type": "uint256"
        }
      ],
      "stateMutability": "view",
      "type": "function"
    },
    {
      "inputs": [],
      "name": "treasuryWallet",
      "outputs": [
        {
          "internalType": "address",
          "name": "",
          "type": "address"
        }
      ],
      "stateMutability": "view",
      "type": "function"
    },
    {
      "inputs": [],
      "name": "unpause",
      "outputs": [],
      "stateMutability": "nonpayable",
      "type": "function"
    },
    {
      "inputs": [
        {
          "internalType": "address",
          "name": "_newTreasury",
          "type": "address"
        }
      ],
      "name": "updateTreasuryWallet",
      "outputs": [],
      "stateMutability": "nonpayable",
      "type": "function"
    },
    {
      "stateMutability": "payable",
      "type": "receive"
    }
  ],
  "bytecode": "0x60806040523480156200001157600080fd5b5060405162002324380380620023248339810160408190526200003491620001ca565b600180556002805460ff191690556001600160a01b0381166200009d5760405162461bcd60e51b815260206004820152601760248201527f496e76616c69642074726561737572792077616c6c6574000000000000000000604482015260640160405180910390fd5b60028054610100600160a81b0319166101006001600160a01b03841602179055620000ca60003362000129565b620000f67fa49807205ce4d355092ef5a8a18f56e8913cf4a201fbe287825b095693c217753362000129565b620001227ff996da754c790e95d5c7ca3330cfcad529487fe9d1d8edb7afc65076fdf9adb43362000129565b50620001fc565b6000828152602081815260408083206001600160a01b038516845290915290205460ff16620001c6576000828152602081815260408083206001600160a01b03851684529091529020805460ff19166001179055620001853390565b6001600160a01b0316816001600160a01b0316837f2f8788117e7eff1d82e926ec794901d17c78024a50270940304540a733656f0d60405160405180910390a45b5050565b600060208284031215620001dd57600080fd5b81516001600160a01b0381168114620001f557600080fd5b9392505050565b612118806200020c6000396000f3fe6080604052600436106101855760003560e01c8063809d458d116100d1578063c59d48471161008a578063db2e21bc11610064578063db2e21bc146104fb578063ef07a81f14610510578063f3d3be1714610544578063f8626af81461055a57600080fd5b8063c59d484714610476578063ca4f3654146104a5578063d547741f146104db57600080fd5b8063809d458d146103c557806382e4b816146103e55780638456cb59146103f857806391d148541461040d578063a217fddf1461042d578063bea865811461044257600080fd5b80633f4ba83a1161013e5780634626402b116101185780634626402b146103215780635c975abb1461035e57806375b238fc1461037657806378fcbfea1461039857600080fd5b80633f4ba83a146102cc5780633f844d13146102e15780634395e1bf1461030157600080fd5b806301ffc9a7146101d45780630fd63e8e1461020957806315a464061461022d578063248a9ca31461025a5780632f2ff15d1461028a57806336568abe146102ac57600080fd5b366101cf5760405162461bcd60e51b81526020600482015260156024820152742ab9b2903237b730ba32941490333ab731ba34b7b760591b60448201526064015b60405180910390fd5b600080fd5b3480156101e057600080fd5b506101f46101ef366004611a8f565b61057a565b60405190151581526020015b60405180910390f35b34801561021557600080fd5b5061021f60035481565b604051908152602001610200565b34801561023957600080fd5b5061024d610248366004611ad5565b6105b1565b6040516102009190611af0565b34801561026657600080fd5b5061021f610275366004611b34565b60009081526020819052604090206001015490565b34801561029657600080fd5b506102aa6102a5366004611b4d565b61061d565b005b3480156102b857600080fd5b506102aa6102c7366004611b4d565b610647565b3480156102d857600080fd5b506102aa6106c5565b3480156102ed57600080fd5b506102aa6102fc366004611c2c565b6106e8565b34801561030d57600080fd5b5061021f61031c366004611cde565b610a14565b34801561032d57600080fd5b506002546103469061010090046001600160a01b031681565b6040516001600160a01b039091168152602001610200565b34801561036a57600080fd5b5060025460ff166101f4565b34801561038257600080fd5b5061021f6000805160206120c383398151915281565b3480156103a457600080fd5b5061021f6103b3366004611ad5565b60076020526000908152604090205481565b3480156103d157600080fd5b506102aa6103e0366004611ad5565b610a45565b6102aa6103f3366004611d08565b610b0e565b34801561040457600080fd5b506102aa610ed2565b34801561041957600080fd5b506101f4610428366004611b4d565b610ef2565b34801561043957600080fd5b5061021f600081565b34801561044e57600080fd5b5061021f7ff996da754c790e95d5c7ca3330cfcad529487fe9d1d8edb7afc65076fdf9adb481565b34801561048257600080fd5b506003546004544760408051938452602084019290925290820152606001610200565b3480156104b157600080fd5b5061021f6104c0366004611ad5565b6001600160a01b031660009081526007602052604090205490565b3480156104e757600080fd5b506102aa6104f6366004611b4d565b610f1b565b34801561050757600080fd5b506102aa610f40565b34801561051c57600080fd5b5061053061052b366004611b34565b611097565b604051610200989796959493929190611da6565b34801561055057600080fd5b5061021f60045481565b34801561056657600080fd5b50610530610575366004611b34565b6113a5565b60006001600160e01b03198216637965db0b60e01b14806105ab57506301ffc9a760e01b6001600160e01b03198316145b92915050565b6001600160a01b03811660009081526006602090815260409182902080548351818402810184019094528084526060939283018282801561061157602002820191906000526020600020905b8154815260200190600101908083116105fd575b50505050509050919050565b60008281526020819052604090206001015461063881611615565b610642838361161f565b505050565b6001600160a01b03811633146106b75760405162461bcd60e51b815260206004820152602f60248201527f416363657373436f6e74726f6c3a2063616e206f6e6c792072656e6f756e636560448201526e103937b632b9903337b91039b2b63360891b60648201526084016101c6565b6106c182826116a3565b5050565b6000805160206120c38339815191526106dd81611615565b6106e5611708565b50565b7ff996da754c790e95d5c7ca3330cfcad529487fe9d1d8edb7afc65076fdf9adb461071281611615565b61071a61175a565b6001600160a01b0387166107685760405162461bcd60e51b8152602060048201526015602482015274496e76616c696420646f6e6f72206164647265737360581b60448201526064016101c6565b600086116107b85760405162461bcd60e51b815260206004820152601d60248201527f416d6f756e74206d7573742062652067726561746572207468616e203000000060448201526064016101c6565b60008451116108095760405162461bcd60e51b815260206004820181905260248201527f45787465726e616c207472616e73616374696f6e20494420726571756972656460448201526064016101c6565b60035460408051610100810190915280846108245789610827565b60005b6001600160a01b0316815260200188815260200142815260200160405180604001604052806004815260200163199a585d60e21b81525081526020018781526020018681526020018581526020018415158152506005600083815260200190815260200160002060008201518160000160006101000a8154816001600160a01b0302191690836001600160a01b03160217905550602082015181600101556040820151816002015560608201518160030190816108e49190611eb0565b50608082015160048201906108f99082611eb0565b5060a0820151600582019061090e9082611eb0565b5060c082015160068201906109239082611eb0565b5060e091909101516007918201805460ff19169115159190911790556001600160a01b03891660008181526006602090815260408083208054600181018255908452828420018690559282529290925281208054899290610985908490611f86565b90915550506003805490600061099a83611f99565b919050555086600460008282546109b19190611f86565b909155508390506109c257876109c5565b60005b6001600160a01b0316817f88d2d9e6898aefda05a5916cd435ae7e15bd02e6c449eedbc387d6e51e4b2958898942604051610a0293929190611fb2565b60405180910390a35050505050505050565b60066020528160005260406000208181548110610a3057600080fd5b90600052602060002001600091509150505481565b6000805160206120c3833981519152610a5d81611615565b6001600160a01b038216610ab35760405162461bcd60e51b815260206004820152601760248201527f496e76616c69642074726561737572792077616c6c657400000000000000000060448201526064016101c6565b600280546001600160a01b03848116610100818102610100600160a81b031985161790945560405193909204169182907fa982575859d7ad2f390dc12b23f7dab8bbda047f9d0140ac68344b27bf34bfb490600090a3505050565b610b166117a2565b610b1e61175a565b60003411610b7d5760405162461bcd60e51b815260206004820152602660248201527f446f6e6174696f6e20616d6f756e74206d75737420626520677265617465722060448201526507468616e20360d41b60648201526084016101c6565b6003546040805161010081019091528084610b985733610b9b565b60005b6001600160a01b031681526020013481526020014281526020016040518060400160405280600681526020016563727970746f60d01b8152508152602001604051806040016040528060058152602001644d4154494360d81b81525081526020016040518060200160405280600081525081526020018381526020018415158152506005600083815260200190815260200160002060008201518160000160006101000a8154816001600160a01b0302191690836001600160a01b0316021790555060208201518160010155604082015181600201556060820151816003019081610c869190611eb0565b5060808201516004820190610c9b9082611eb0565b5060a08201516005820190610cb09082611eb0565b5060c08201516006820190610cc59082611eb0565b5060e091909101516007918201805460ff19169115159190911790553360008181526006602090815260408083208054600181018255908452828420018690559282529290925281208054349290610d1e908490611f86565b909155505060038054906000610d3383611f99565b91905055503460046000828254610d4a9190611f86565b909155505060025460405160009161010090046001600160a01b03169034908381818185875af1925050503d8060008114610da1576040519150601f19603f3d011682016040523d82523d6000602084013e610da6565b606091505b5050905080610df75760405162461bcd60e51b815260206004820152601b60248201527f5472616e7366657220746f207472656173757279206661696c6564000000000060448201526064016101c6565b6040805134815242602082015233917f4b0304ab2f313234b1cea012339c8f8c3bf2c8bb357d81a579cfdb35d2e3d030910160405180910390a283610e3c5733610e3f565b60005b6001600160a01b0316827f88d2d9e6898aefda05a5916cd435ae7e15bd02e6c449eedbc387d6e51e4b29583442604051610ebf9291909182526080602083018190526006908301526563727970746f60d01b60a083015260c060408301819052600590830152644d4154494360d81b60e083015260608201526101000190565b60405180910390a350506106c160018055565b6000805160206120c3833981519152610eea81611615565b6106e56117fb565b6000918252602082815260408084206001600160a01b0393909316845291905290205460ff1690565b600082815260208190526040902060010154610f3681611615565b61064283836116a3565b6000805160206120c3833981519152610f5881611615565b610f606117a2565b4780610fa55760405162461bcd60e51b81526020600482015260146024820152734e6f2066756e647320746f20776974686472617760601b60448201526064016101c6565b60025460405160009161010090046001600160a01b03169083908381818185875af1925050503d8060008114610ff7576040519150601f19603f3d011682016040523d82523d6000602084013e610ffc565b606091505b50509050806110415760405162461bcd60e51b815260206004820152601160248201527015da5d1a191c985dd85b0819985a5b1959607a1b60448201526064016101c6565b600254604080518481524260208201526101009092046001600160a01b0316917ffbc3a599b784fe88772fc5abcc07223f64ca0b13acc341f4fb1e46bef0510eb4910160405180910390a250506106e560018055565b6000806000606080606080600080600560008b8152602001908152602001600020604051806101000160405290816000820160009054906101000a90046001600160a01b03166001600160a01b03166001600160a01b03168152602001600182015481526020016002820154815260200160038201805461111790611e28565b80601f016020809104026020016040519081016040528092919081815260200182805461114390611e28565b80156111905780601f1061116557610100808354040283529160200191611190565b820191906000526020600020905b81548152906001019060200180831161117357829003601f168201915b505050505081526020016004820180546111a990611e28565b80601f01602080910402602001604051908101604052809291908181526020018280546111d590611e28565b80156112225780601f106111f757610100808354040283529160200191611222565b820191906000526020600020905b81548152906001019060200180831161120557829003601f168201915b5050505050815260200160058201805461123b90611e28565b80601f016020809104026020016040519081016040528092919081815260200182805461126790611e28565b80156112b45780601f10611289576101008083540402835291602001916112b4565b820191906000526020600020905b81548152906001019060200180831161129757829003601f168201915b505050505081526020016006820180546112cd90611e28565b80601f01602080910402602001604051908101604052809291908181526020018280546112f990611e28565b80156113465780601f1061131b57610100808354040283529160200191611346565b820191906000526020600020905b81548152906001019060200180831161132957829003601f168201915b50505091835250506007919091015460ff16151560209182015281519082015160408301516060840151608085015160a086015160c087015160e090970151959f50939d50919b50995097509550909350915050919395975091939597565b60056020526000908152604090208054600182015460028301546003840180546001600160a01b039094169492939192916113df90611e28565b80601f016020809104026020016040519081016040528092919081815260200182805461140b90611e28565b80156114585780601f1061142d57610100808354040283529160200191611458565b820191906000526020600020905b81548152906001019060200180831161143b57829003601f168201915b50505050509080600401805461146d90611e28565b80601f016020809104026020016040519081016040528092919081815260200182805461149990611e28565b80156114e65780601f106114bb576101008083540402835291602001916114e6565b820191906000526020600020905b8154815290600101906020018083116114c957829003601f168201915b5050505050908060050180546114fb90611e28565b80601f016020809104026020016040519081016040528092919081815260200182805461152790611e28565b80156115745780601f1061154957610100808354040283529160200191611574565b820191906000526020600020905b81548152906001019060200180831161155757829003601f168201915b50505050509080600601805461158990611e28565b80601f01602080910402602001604051908101604052809291908181526020018280546115b590611e28565b80156116025780601f106115d757610100808354040283529160200191611602565b820191906000526020600020905b8154815290600101906020018083116115e557829003601f168201915b5050506007909301549192505060ff1688565b6106e58133611838565b6116298282610ef2565b6106c1576000828152602081815260408083206001600160a01b03851684529091529020805460ff1916600117905561165f3390565b6001600160a01b0316816001600160a01b0316837f2f8788117e7eff1d82e926ec794901d17c78024a50270940304540a733656f0d60405160405180910390a45050565b6116ad8282610ef2565b156106c1576000828152602081815260408083206001600160a01b0385168085529252808320805460ff1916905551339285917ff6391f5c32d9c69d2a47ea670b442974b53935d1edc7fd64eb21e047a839171b9190a45050565b611710611891565b6002805460ff191690557f5db9ee0a495bf2e6ff9c91a7834c1ba4fdd244a5e8aa4e537bd38aeae4b073aa335b6040516001600160a01b03909116815260200160405180910390a1565b60025460ff16156117a05760405162461bcd60e51b815260206004820152601060248201526f14185d5cd8589b194e881c185d5cd95960821b60448201526064016101c6565b565b6002600154036117f45760405162461bcd60e51b815260206004820152601f60248201527f5265656e7472616e637947756172643a207265656e7472616e742063616c6c0060448201526064016101c6565b6002600155565b61180361175a565b6002805460ff191660011790557f62e78cea01bee320cd4e420270b5ea74000d11b0c9f74754ebdbfc544b05a25861173d3390565b6118428282610ef2565b6106c15761184f816118da565b61185a8360206118ec565b60405160200161186b929190611ff6565b60408051601f198184030181529082905262461bcd60e51b82526101c69160040161206b565b60025460ff166117a05760405162461bcd60e51b815260206004820152601460248201527314185d5cd8589b194e881b9bdd081c185d5cd95960621b60448201526064016101c6565b60606105ab6001600160a01b03831660145b606060006118fb83600261207e565b611906906002611f86565b67ffffffffffffffff81111561191e5761191e611b79565b6040519080825280601f01601f191660200182016040528015611948576020820181803683370190505b509050600360fc1b8160008151811061196357611963612095565b60200101906001600160f81b031916908160001a905350600f60fb1b8160018151811061199257611992612095565b60200101906001600160f81b031916908160001a90535060006119b684600261207e565b6119c1906001611f86565b90505b6001811115611a39576f181899199a1a9b1b9c1cb0b131b232b360811b85600f16601081106119f5576119f5612095565b1a60f81b828281518110611a0b57611a0b612095565b60200101906001600160f81b031916908160001a90535060049490941c93611a32816120ab565b90506119c4565b508315611a885760405162461bcd60e51b815260206004820181905260248201527f537472696e67733a20686578206c656e67746820696e73756666696369656e7460448201526064016101c6565b9392505050565b600060208284031215611aa157600080fd5b81356001600160e01b031981168114611a8857600080fd5b80356001600160a01b0381168114611ad057600080fd5b919050565b600060208284031215611ae757600080fd5b611a8882611ab9565b6020808252825182820181905260009190848201906040850190845b81811015611b2857835183529284019291840191600101611b0c565b50909695505050505050565b600060208284031215611b4657600080fd5b5035919050565b60008060408385031215611b6057600080fd5b82359150611b7060208401611ab9565b90509250929050565b634e487b7160e01b600052604160045260246000fd5b600082601f830112611ba057600080fd5b813567ffffffffffffffff80821115611bbb57611bbb611b79565b604051601f8301601f19908116603f01168101908282118183101715611be357611be3611b79565b81604052838152866020858801011115611bfc57600080fd5b836020870160208301376000602085830101528094505050505092915050565b80358015158114611ad057600080fd5b60008060008060008060c08789031215611c4557600080fd5b611c4e87611ab9565b955060208701359450604087013567ffffffffffffffff80821115611c7257600080fd5b611c7e8a838b01611b8f565b95506060890135915080821115611c9457600080fd5b611ca08a838b01611b8f565b94506080890135915080821115611cb657600080fd5b50611cc389828a01611b8f565b925050611cd260a08801611c1c565b90509295509295509295565b60008060408385031215611cf157600080fd5b611cfa83611ab9565b946020939093013593505050565b60008060408385031215611d1b57600080fd5b611d2483611c1c565b9150602083013567ffffffffffffffff811115611d4057600080fd5b611d4c85828601611b8f565b9150509250929050565b60005b83811015611d71578181015183820152602001611d59565b50506000910152565b60008151808452611d92816020860160208601611d56565b601f01601f19169290920160200192915050565b600061010060018060a01b038b168352896020840152886040840152806060840152611dd481840189611d7a565b90508281036080840152611de88188611d7a565b905082810360a0840152611dfc8187611d7a565b905082810360c0840152611e108186611d7a565b91505082151560e08301529998505050505050505050565b600181811c90821680611e3c57607f821691505b602082108103611e5c57634e487b7160e01b600052602260045260246000fd5b50919050565b601f82111561064257600081815260208120601f850160051c81016020861015611e895750805b601f850160051c820191505b81811015611ea857828155600101611e95565b505050505050565b815167ffffffffffffffff811115611eca57611eca611b79565b611ede81611ed88454611e28565b84611e62565b602080601f831160018114611f135760008415611efb5750858301515b600019600386901b1c1916600185901b178555611ea8565b600085815260208120601f198616915b82811015611f4257888601518255948401946001909101908401611f23565b5085821015611f605787850151600019600388901b60f8161c191681555b5050505050600190811b01905550565b634e487b7160e01b600052601160045260246000fd5b808201808211156105ab576105ab611f70565b600060018201611fab57611fab611f70565b5060010190565b838152608060208201526004608082015263199a585d60e21b60a082015260c060408201526000611fe660c0830185611d7a565b9050826060830152949350505050565b7f416363657373436f6e74726f6c3a206163636f756e742000000000000000000081526000835161202e816017850160208801611d56565b7001034b99036b4b9b9b4b733903937b6329607d1b601791840191820152835161205f816028840160208801611d56565b01602801949350505050565b602081526000611a886020830184611d7a565b80820281158282048414176105ab576105ab611f70565b634e487b7160e01b600052603260045260246000fd5b6000816120ba576120ba611f70565b50600019019056fea49807205ce4d355092ef5a8a18f56e8913cf4a201fbe287825b095693c21775a2646970667358221220242d86f1c7e14f8b75466794b26bb7b1b5897760c4b7afe4ae5e302e49d4001164736f6c63430008140033",
  "linkReferences": {},
  "deployedLinkReferences": {}
}