{
  "_format": "hh-sol-artifact-1",
  "contractName": "AchievementNFT",
  "sourceName": "contracts/AchievementNFT.sol",
  "abi": [
    {
      "inputs": [],
      "stateMutability": "nonpayable",
      "type": "constructor"
    },
    {
      "anonymous": false,
      "inputs": [
        {
          "indexed": true,
          "internalType": "uint256",
          "name": "tokenId",
          "type": "uint256"
        },
        {
          "indexed": true,
          "internalType": "address",
          "name": "recipient",
          "type": "address"
        },
        {
          "indexed": false,
          "internalType": "string",
          "name": "achievementType",
          "type": "string"
        },
        {
          "indexed": false,
          "internalType": "string",
          "name": "tier",
          "type": "string"
        },
        {
          "indexed": false,
          "internalType": "uint256",
          "name": "timestamp",
          "type": "uint256"
        }
      ],
      "name": "AchievementMinted",
      "type": "event"
    },
    {
      "anonymous": false,
      "inputs": [
        {
          "indexed": true,
          "internalType": "address",
          "name": "owner",
          "type": "address"
        },
        {
          "indexed": true,
          "internalType": "address",
          "name": "approved",
          "type": "address"
        },
        {
          "indexed": true,
          "internalType": "uint256",
          "name": "tokenId",
          "type": "uint256"
        }
      ],
      "name": "Approval",
      "type": "event"
    },
    {
      "anonymous": false,
      "inputs": [
        {
          "indexed": true,
          "internalType": "address",
          "name": "owner",
          "type": "address"
        },
        {
          "indexed": true,
          "internalType": "address",
          "name": "operator",
          "type": "address"
        },
        {
          "indexed": false,
          "internalType": "bool",
          "name": "approved",
          "type": "bool"
        }
      ],
      "name": "ApprovalForAll",
      "type": "event"
    },
    {
      "anonymous": false,
      "inputs": [
        {
          "indexed": false,
          "internalType": "uint256",
          "name": "_fromTokenId",
          "type": "uint256"
        },
        {
          "indexed": false,
          "internalType": "uint256",
          "name": "_toTokenId",
          "type": "uint256"
        }
      ],
      "name": "BatchMetadataUpdate",
      "type": "event"
    },
    {
      "anonymous": false,
      "inputs": [
        {
          "indexed": false,
          "internalType": "uint256",
          "name": "_tokenId",
          "type": "uint256"
        }
      ],
      "name": "MetadataUpdate",
      "type": "event"
    },
    {
      "anonymous": false,
      "inputs": [
        {
          "indexed": true,
          "internalType": "bytes32",
          "name": "role",
          "type": "bytes32"
        },
        {
          "indexed": true,
          "internalType": "bytes32",
          "name": "previousAdminRole",
          "type": "bytes32"
        },
        {
          "indexed": true,
          "internalType": "bytes32",
          "name": "newAdminRole",
          "type": "bytes32"
        }
      ],
      "name": "RoleAdminChanged",
      "type": "event"
    },
    {
      "anonymous": false,
      "inputs": [
        {
          "indexed": true,
          "internalType": "bytes32",
          "name": "role",
          "type": "bytes32"
        },
        {
          "indexed": true,
          "internalType": "address",
          "name": "account",
          "type": "address"
        },
        {
          "indexed": true,
          "internalType": "address",
          "name": "sender",
          "type": "address"
        }
      ],
      "name": "RoleGranted",
      "type": "event"
    },
    {
      "anonymous": false,
      "inputs": [
        {
          "indexed": true,
          "internalType": "bytes32",
          "name": "role",
          "type": "bytes32"
        },
        {
          "indexed": true,
          "internalType": "address",
          "name": "account",
          "type": "address"
        },
        {
          "indexed": true,
          "internalType": "address",
          "name": "sender",
          "type": "address"
        }
      ],
      "name": "RoleRevoked",
      "type": "event"
    },
    {
      "anonymous": false,
      "inputs": [
        {
          "indexed": true,
          "internalType": "address",
          "name": "from",
          "type": "address"
        },
        {
          "indexed": true,
          "internalType": "address",
          "name": "to",
          "type": "address"
        },
        {
          "indexed": true,
          "internalType": "uint256",
          "name": "tokenId",
          "type": "uint256"
        }
      ],
      "name": "Transfer",
      "type": "event"
    },
    {
      "inputs": [],
      "name": "DEFAULT_ADMIN_ROLE",
      "outputs": [
        {
          "internalType": "bytes32",
          "name": "",
          "type": "bytes32"
        }
      ],
      "stateMutability": "view",
      "type": "function"
    },
    {
      "inputs": [],
      "name": "MINTER_ROLE",
      "outputs": [
        {
          "internalType": "bytes32",
          "name": "",
          "type": "bytes32"
        }
      ],
      "stateMutability": "view",
      "type": "function"
    },
    {
      "inputs": [
        {
          "internalType": "uint256",
          "name": "",
          "type": "uint256"
        }
      ],
      "name": "achievements",
      "outputs": [
        {
          "internalType": "string",
          "name": "achievementType",
          "type": "string"
        },
        {
          "internalType": "uint256",
          "name": "timestamp",
          "type": "uint256"
        },
        {
          "internalType": "string",
          "name": "tier",
          "type": "string"
        },
        {
          "internalType": "uint256",
          "name": "value",
          "type": "uint256"
        }
      ],
      "stateMutability": "view",
      "type": "function"
    },
    {
      "inputs": [
        {
          "internalType": "address",
          "name": "to",
          "type": "address"
        },
        {
          "internalType": "uint256",
          "name": "tokenId",
          "type": "uint256"
        }
      ],
      "name": "approve",
      "outputs": [],
      "stateMutability": "nonpayable",
      "type": "function"
    },
    {
      "inputs": [
        {
          "internalType": "address",
          "name": "owner",
          "type": "address"
        }
      ],
      "name": "balanceOf",
      "outputs": [
        {
          "internalType": "uint256",
          "name": "",
          "type": "uint256"
        }
      ],
      "stateMutability": "view",
      "type": "function"
    },
    {
      "inputs": [
        {
          "internalType": "uint256",
          "name": "_tokenId",
          "type": "uint256"
        }
      ],
      "name": "getAchievement",
      "outputs": [
        {
          "internalType": "string",
          "name": "achievementType",
          "type": "string"
        },
        {
          "internalType": "uint256",
          "name": "timestamp",
          "type": "uint256"
        },
        {
          "internalType": "string",
          "name": "tier",
          "type": "string"
        },
        {
          "internalType": "uint256",
          "name": "value",
          "type": "uint256"
        }
      ],
      "stateMutability": "view",
      "type": "function"
    },
    {
      "inputs": [
        {
          "internalType": "uint256",
          "name": "tokenId",
          "type": "uint256"
        }
      ],
      "name": "getApproved",
      "outputs": [
        {
          "internalType": "address",
          "name": "",
          "type": "address"
        }
      ],
      "stateMutability": "view",
      "type": "function"
    },
    {
      "inputs": [
        {
          "internalType": "bytes32",
          "name": "role",
          "type": "bytes32"
        }
      ],
      "name": "getRoleAdmin",
      "outputs": [
        {
          "internalType": "bytes32",
          "name": "",
          "type": "bytes32"
        }
      ],
      "stateMutability": "view",
      "type": "function"
    },
    {
      "inputs": [
        {
          "internalType": "address",
          "name": "_user",
          "type": "address"
        }
      ],
      "name": "getUserAchievements",
      "outputs": [
        {
          "internalType": "uint256[]",
          "name": "",
          "type": "uint256[]"
        }
      ],
      "stateMutability": "view",
      "type": "function"
    },
    {
      "inputs": [
        {
          "internalType": "bytes32",
          "name": "role",
          "type": "bytes32"
        },
        {
          "internalType": "address",
          "name": "account",
          "type": "address"
        }
      ],
      "name": "grantRole",
      "outputs": [],
      "stateMutability": "nonpayable",
      "type": "function"
    },
    {
      "inputs": [
        {
          "internalType": "bytes32",
          "name": "role",
          "type": "bytes32"
        },
        {
          "internalType": "address",
          "name": "account",
          "type": "address"
        }
      ],
      "name": "hasRole",
      "outputs": [
        {
          "internalType": "bool",
          "name": "",
          "type": "bool"
        }
      ],
      "stateMutability": "view",
      "type": "function"
    },
    {
      "inputs": [
        {
          "internalType": "address",
          "name": "owner",
          "type": "address"
        },
        {
          "internalType": "address",
          "name": "operator",
          "type": "address"
        }
      ],
      "name": "isApprovedForAll",
      "outputs": [
        {
          "internalType": "bool",
          "name": "",
          "type": "bool"
        }
      ],
      "stateMutability": "view",
      "type": "function"
    },
    {
      "inputs": [
        {
          "internalType": "address",
          "name": "_recipient",
          "type": "address"
        },
        {
          "internalType": "string",
          "name": "_achievementType",
          "type": "string"
        },
        {
          "internalType": "string",
          "name": "_tier",
          "type": "string"
        },
        {
          "internalType": "uint256",
          "name": "_value",
          "type": "uint256"
        },
        {
          "internalType": "string",
          "name": "_tokenURI",
          "type": "string"
        }
      ],
      "name": "mintAchievement",
      "outputs": [
        {
          "internalType": "uint256",
          "name": "",
          "type": "uint256"
        }
      ],
      "stateMutability": "nonpayable",
      "type": "function"
    },
    {
      "inputs": [],
      "name": "name",
      "outputs": [
        {
          "internalType": "string",
          "name": "",
          "type": "string"
        }
      ],
      "stateMutability": "view",
      "type": "function"
    },
    {
      "inputs": [
        {
          "internalType": "uint256",
          "name": "tokenId",
          "type": "uint256"
        }
      ],
      "name": "ownerOf",
      "outputs": [
        {
          "internalType": "address",
          "name": "",
          "type": "address"
        }
      ],
      "stateMutability": "view",
      "type": "function"
    },
    {
      "inputs": [
        {
          "internalType": "bytes32",
          "name": "role",
          "type": "bytes32"
        },
        {
          "internalType": "address",
          "name": "account",
          "type": "address"
        }
      ],
      "name": "renounceRole",
      "outputs": [],
      "stateMutability": "nonpayable",
      "type": "function"
    },
    {
      "inputs": [
        {
          "internalType": "bytes32",
          "name": "role",
          "type": "bytes32"
        },
        {
          "internalType": "address",
          "name": "account",
          "type": "address"
        }
      ],
      "name": "revokeRole",
      "outputs": [],
      "stateMutability": "nonpayable",
      "type": "function"
    },
    {
      "inputs": [
        {
          "internalType": "address",
          "name": "from",
          "type": "address"
        },
        {
          "internalType": "address",
          "name": "to",
          "type": "address"
        },
        {
          "internalType": "uint256",
          "name": "tokenId",
          "type": "uint256"
        }
      ],
      "name": "safeTransferFrom",
      "outputs": [],
      "stateMutability": "nonpayable",
      "type": "function"
    },
    {
      "inputs": [
        {
          "internalType": "address",
          "name": "from",
          "type": "address"
        },
        {
          "internalType": "address",
          "name": "to",
          "type": "address"
        },
        {
          "internalType": "uint256",
          "name": "tokenId",
          "type": "uint256"
        },
        {
          "internalType": "bytes",
          "name": "data",
          "type": "bytes"
        }
      ],
      "name": "safeTransferFrom",
      "outputs": [],
      "stateMutability": "nonpayable",
      "type": "function"
    },
    {
      "inputs": [
        {
          "internalType": "address",
          "name": "operator",
          "type": "address"
        },
        {
          "internalType": "bool",
          "name": "approved",
          "type": "bool"
        }
      ],
      "name": "setApprovalForAll",
      "outputs": [],
      "stateMutability": "nonpayable",
      "type": "function"
    },
    {
      "inputs": [
        {
          "internalType": "bytes4",
          "name": "interfaceId",
          "type": "bytes4"
        }
      ],
      "name": "supportsInterface",
      "outputs": [
        {
          "internalType": "bool",
          "name": "",
          "type": "bool"
        }
      ],
      "stateMutability": "view",
      "type": "function"
    },
    {
      "inputs": [],
      "name": "symbol",
      "outputs": [
        {
          "internalType": "string",
          "name": "",
          "type": "string"
        }
      ],
      "stateMutability": "view",
      "type": "function"
    },
    {
      "inputs": [
        {
          "internalType": "uint256",
          "name": "tokenId",
          "type": "uint256"
        }
      ],
      "name": "tokenURI",
      "outputs": [
        {
          "internalType": "string",
          "name": "",
          "type": "string"
        }
      ],
      "stateMutability": "view",
      "type": "function"
    },
    {
      "inputs": [
        {
          "internalType": "address",
          "name": "from",
          "type": "address"
        },
        {
          "internalType": "address",
          "name": "to",
          "type": "address"
        },
        {
          "internalType": "uint256",
          "name": "tokenId",
          "type": "uint256"
        }
      ],
      "name": "transferFrom",
      "outputs": [],
      "stateMutability": "nonpayable",
      "type": "function"
    },
    {
      "inputs": [
        {
          "internalType": "address",
          "name": "",
          "type": "address"
        },
        {
          "internalType": "uint256",
          "name": "",
          "type": "uint256"
        }
      ],
      "name": "userAchievements",
      "outputs": [
        {
          "internalType": "uint256",
          "name": "",
          "type": "uint256"
        }
      ],
      "stateMutability": "view",
      "type": "function"
    }
  ],
  "bytecode": "0x60806040523480156200001157600080fd5b506040518060400160405280601881526020017f43617265436f6e6e65637420416368696576656d656e747300000000000000008152506040518060400160405280600381526020016243434160e81b815250816000908162000075919062000212565b50600162000084828262000212565b506200009691506000905033620000c8565b620000c27f9f2df0fed2c77648de5860a4cc508cd0818c85b8b8a1ab4ceeef8d981c8956a633620000c8565b620002de565b60008281526007602090815260408083206001600160a01b038516845290915290205460ff16620001695760008281526007602090815260408083206001600160a01b03851684529091529020805460ff19166001179055620001283390565b6001600160a01b0316816001600160a01b0316837f2f8788117e7eff1d82e926ec794901d17c78024a50270940304540a733656f0d60405160405180910390a45b5050565b634e487b7160e01b600052604160045260246000fd5b600181811c908216806200019857607f821691505b602082108103620001b957634e487b7160e01b600052602260045260246000fd5b50919050565b601f8211156200020d57600081815260208120601f850160051c81016020861015620001e85750805b601f850160051c820191505b818110156200020957828155600101620001f4565b5050505b505050565b81516001600160401b038111156200022e576200022e6200016d565b62000246816200023f845462000183565b84620001bf565b602080601f8311600181146200027e5760008415620002655750858301515b600019600386901b1c1916600185901b17855562000209565b600085815260208120601f198616915b82811015620002af578886015182559484019460019091019084016200028e565b5085821015620002ce5787850151600019600388901b60f8161c191681555b5050505050600190811b01905550565b6123d780620002ee6000396000f3fe608060405234801561001057600080fd5b50600436106101735760003560e01c806370a08231116100de578063b88d4fde11610097578063d547741f11610071578063d547741f14610364578063e985e9c514610377578063f09153c4146103b3578063f2ccc543146103d357600080fd5b8063b88d4fde14610317578063c87b56dd1461032a578063d53913931461033d57600080fd5b806370a08231146102bb57806391d14854146102ce57806395d89b41146102e1578063a217fddf146102e9578063a22cb465146102f1578063a91535a11461030457600080fd5b8063248a9ca311610130578063248a9ca31461022957806327aed72e1461024c5780632f2ff15d1461026f57806336568abe1461028257806342842e0e146102955780636352211e146102a857600080fd5b806301ffc9a71461017857806306fdde03146101a0578063081812fc146101b5578063095ea7b3146101e057806323b872dd146101f557806324548c6014610208575b600080fd5b61018b610186366004611ba7565b6103e6565b60405190151581526020015b60405180910390f35b6101a86103f7565b6040516101979190611c14565b6101c86101c3366004611c27565b610489565b6040516001600160a01b039091168152602001610197565b6101f36101ee366004611c5c565b6104b0565b005b6101f3610203366004611c86565b6105ca565b61021b610216366004611c5c565b6105fb565b604051908152602001610197565b61021b610237366004611c27565b60009081526007602052604090206001015490565b61025f61025a366004611c27565b61062c565b6040516101979493929190611cc2565b6101f361027d366004611cff565b610764565b6101f3610290366004611cff565b610789565b6101f36102a3366004611c86565b610807565b6101c86102b6366004611c27565b610822565b61021b6102c9366004611d2b565b610882565b61018b6102dc366004611cff565b610908565b6101a8610933565b61021b600081565b6101f36102ff366004611d46565b610942565b61021b610312366004611e2e565b61094d565b6101f3610325366004611ed1565b610ad0565b6101a8610338366004611c27565b610b08565b61021b7f9f2df0fed2c77648de5860a4cc508cd0818c85b8b8a1ab4ceeef8d981c8956a681565b6101f3610372366004611cff565b610b13565b61018b610385366004611f4d565b6001600160a01b03918216600090815260056020908152604080832093909416825291909152205460ff1690565b6103c66103c1366004611d2b565b610b38565b6040516101979190611f77565b61025f6103e1366004611c27565b610ba4565b60006103f182610d26565b92915050565b60606000805461040690611fbb565b80601f016020809104026020016040519081016040528092919081815260200182805461043290611fbb565b801561047f5780601f106104545761010080835404028352916020019161047f565b820191906000526020600020905b81548152906001019060200180831161046257829003601f168201915b5050505050905090565b600061049482610d4b565b506000908152600460205260409020546001600160a01b031690565b60006104bb82610822565b9050806001600160a01b0316836001600160a01b03160361052d5760405162461bcd60e51b815260206004820152602160248201527f4552433732313a20617070726f76616c20746f2063757272656e74206f776e656044820152603960f91b60648201526084015b60405180910390fd5b336001600160a01b038216148061054957506105498133610385565b6105bb5760405162461bcd60e51b815260206004820152603d60248201527f4552433732313a20617070726f76652063616c6c6572206973206e6f7420746f60448201527f6b656e206f776e6572206f7220617070726f76656420666f7220616c6c0000006064820152608401610524565b6105c58383610dad565b505050565b6105d43382610e1b565b6105f05760405162461bcd60e51b815260040161052490611ff5565b6105c5838383610e9a565b600a602052816000526040600020818154811061061757600080fd5b90600052602060002001600091509150505481565b60096020526000908152604090208054819061064790611fbb565b80601f016020809104026020016040519081016040528092919081815260200182805461067390611fbb565b80156106c05780601f10610695576101008083540402835291602001916106c0565b820191906000526020600020905b8154815290600101906020018083116106a357829003601f168201915b5050505050908060010154908060020180546106db90611fbb565b80601f016020809104026020016040519081016040528092919081815260200182805461070790611fbb565b80156107545780601f1061072957610100808354040283529160200191610754565b820191906000526020600020905b81548152906001019060200180831161073757829003601f168201915b5050505050908060030154905084565b60008281526007602052604090206001015461077f8161100b565b6105c58383611015565b6001600160a01b03811633146107f95760405162461bcd60e51b815260206004820152602f60248201527f416363657373436f6e74726f6c3a2063616e206f6e6c792072656e6f756e636560448201526e103937b632b9903337b91039b2b63360891b6064820152608401610524565b610803828261109b565b5050565b6105c583838360405180602001604052806000815250610ad0565b6000818152600260205260408120546001600160a01b0316806103f15760405162461bcd60e51b8152602060048201526018602482015277115490cdcc8c4e881a5b9d985b1a59081d1bdad95b88125160421b6044820152606401610524565b60006001600160a01b0382166108ec5760405162461bcd60e51b815260206004820152602960248201527f4552433732313a2061646472657373207a65726f206973206e6f7420612076616044820152683634b21037bbb732b960b91b6064820152608401610524565b506001600160a01b031660009081526003602052604090205490565b60009182526007602090815260408084206001600160a01b0393909316845291905290205460ff1690565b60606001805461040690611fbb565b610803338383611102565b60007f9f2df0fed2c77648de5860a4cc508cd0818c85b8b8a1ab4ceeef8d981c8956a66109798161100b565b6001600160a01b0387166109c35760405162461bcd60e51b8152602060048201526011602482015270125b9d985b1a59081c9958da5c1a595b9d607a1b6044820152606401610524565b6008805490819060006109d583612058565b91905055506109e488826111d0565b6109ee81856111ea565b604080516080810182528881524260208083019190915281830189905260608201889052600084815260099091529190912081518190610a2e90826120bf565b506020820151600182015560408201516002820190610a4d90826120bf565b50606091909101516003909101556001600160a01b0388166000818152600a60209081526040808320805460018101825590845291909220018390555182907fd8d05a3f8490a9e0f11729a38b2c7282fefa7a210ccf0cc6f6b449a516cb18ca90610abd908b908b90429061217f565b60405180910390a3979650505050505050565b610ada3383610e1b565b610af65760405162461bcd60e51b815260040161052490611ff5565b610b02848484846112b5565b50505050565b60606103f1826112e8565b600082815260076020526040902060010154610b2e8161100b565b6105c5838361109b565b6001600160a01b0381166000908152600a6020908152604091829020805483518184028101840190945280845260609392830182828015610b9857602002820191906000526020600020905b815481526020019060010190808311610b84575b50505050509050919050565b60606000606060008060096000878152602001908152602001600020604051806080016040529081600082018054610bdb90611fbb565b80601f0160208091040260200160405190810160405280929190818152602001828054610c0790611fbb565b8015610c545780601f10610c2957610100808354040283529160200191610c54565b820191906000526020600020905b815481529060010190602001808311610c3757829003601f168201915b5050505050815260200160018201548152602001600282018054610c7790611fbb565b80601f0160208091040260200160405190810160405280929190818152602001828054610ca390611fbb565b8015610cf05780601f10610cc557610100808354040283529160200191610cf0565b820191906000526020600020905b815481529060010190602001808311610cd357829003601f168201915b50505091835250506003919091015460209182015281519082015160408301516060909301519199909850919650945092505050565b60006001600160e01b03198216637965db0b60e01b14806103f157506103f1826113f0565b6000818152600260205260409020546001600160a01b0316610daa5760405162461bcd60e51b8152602060048201526018602482015277115490cdcc8c4e881a5b9d985b1a59081d1bdad95b88125160421b6044820152606401610524565b50565b600081815260046020526040902080546001600160a01b0319166001600160a01b0384169081179091558190610de282610822565b6001600160a01b03167f8c5be1e5ebec7d5bd14f71427d1e84f3dd0314c0f7b2291e5b200ac8c7c3b92560405160405180910390a45050565b600080610e2783610822565b9050806001600160a01b0316846001600160a01b03161480610e6e57506001600160a01b0380821660009081526005602090815260408083209388168352929052205460ff165b80610e925750836001600160a01b0316610e8784610489565b6001600160a01b0316145b949350505050565b826001600160a01b0316610ead82610822565b6001600160a01b031614610ed35760405162461bcd60e51b8152600401610524906121b5565b6001600160a01b038216610f355760405162461bcd60e51b8152602060048201526024808201527f4552433732313a207472616e7366657220746f20746865207a65726f206164646044820152637265737360e01b6064820152608401610524565b610f428383836001611415565b826001600160a01b0316610f5582610822565b6001600160a01b031614610f7b5760405162461bcd60e51b8152600401610524906121b5565b600081815260046020908152604080832080546001600160a01b03199081169091556001600160a01b0387811680865260038552838620805460001901905590871680865283862080546001019055868652600290945282852080549092168417909155905184937fddf252ad1be2c89b69c2b068fc378daa952ba7f163c4a11628f55a4df523b3ef91a4505050565b610daa813361148e565b61101f8282610908565b6108035760008281526007602090815260408083206001600160a01b03851684529091529020805460ff191660011790556110573390565b6001600160a01b0316816001600160a01b0316837f2f8788117e7eff1d82e926ec794901d17c78024a50270940304540a733656f0d60405160405180910390a45050565b6110a58282610908565b156108035760008281526007602090815260408083206001600160a01b0385168085529252808320805460ff1916905551339285917ff6391f5c32d9c69d2a47ea670b442974b53935d1edc7fd64eb21e047a839171b9190a45050565b816001600160a01b0316836001600160a01b0316036111635760405162461bcd60e51b815260206004820152601960248201527f4552433732313a20617070726f766520746f2063616c6c6572000000000000006044820152606401610524565b6001600160a01b03838116600081815260056020908152604080832094871680845294825291829020805460ff191686151590811790915591519182527f17307eab39ab6107e8899845ad3d59bd9653f200f220920489ca2b5937696c31910160405180910390a3505050565b6108038282604051806020016040528060008152506114e7565b6000828152600260205260409020546001600160a01b03166112655760405162461bcd60e51b815260206004820152602e60248201527f45524337323155524953746f726167653a2055524920736574206f66206e6f6e60448201526d32bc34b9ba32b73a103a37b5b2b760911b6064820152608401610524565b600082815260066020526040902061127d82826120bf565b506040518281527ff8e1a15aba9398e019f0b49df1a4fde98ee17ae345cb5f6b5e2c27f5033e8ce79060200160405180910390a15050565b6112c0848484610e9a565b6112cc8484848461151a565b610b025760405162461bcd60e51b8152600401610524906121fa565b60606112f382610d4b565b6000828152600660205260408120805461130c90611fbb565b80601f016020809104026020016040519081016040528092919081815260200182805461133890611fbb565b80156113855780601f1061135a57610100808354040283529160200191611385565b820191906000526020600020905b81548152906001019060200180831161136857829003601f168201915b5050505050905060006113a360408051602081019091526000815290565b905080516000036113b5575092915050565b8151156113e75780826040516020016113cf92919061224c565b60405160208183030381529060405292505050919050565b610e928461161b565b60006001600160e01b03198216632483248360e11b14806103f157506103f18261168f565b6001600160a01b038416158061143257506001600160a01b038316155b610b025760405162461bcd60e51b815260206004820152602760248201527f416368696576656d656e742062616467657320617265206e6f6e2d7472616e7360448201526666657261626c6560c81b6064820152608401610524565b6114988282610908565b610803576114a5816116df565b6114b08360206116f1565b6040516020016114c192919061227b565b60408051601f198184030181529082905262461bcd60e51b825261052491600401611c14565b6114f1838361188d565b6114fe600084848461151a565b6105c55760405162461bcd60e51b8152600401610524906121fa565b60006001600160a01b0384163b1561161057604051630a85bd0160e11b81526001600160a01b0385169063150b7a029061155e9033908990889088906004016122f0565b6020604051808303816000875af1925050508015611599575060408051601f3d908101601f191682019092526115969181019061232d565b60015b6115f6573d8080156115c7576040519150601f19603f3d011682016040523d82523d6000602084013e6115cc565b606091505b5080516000036115ee5760405162461bcd60e51b8152600401610524906121fa565b805181602001fd5b6001600160e01b031916630a85bd0160e11b149050610e92565b506001949350505050565b606061162682610d4b565b600061163d60408051602081019091526000815290565b9050600081511161165d5760405180602001604052806000815250611688565b8061166784611a26565b60405160200161167892919061224c565b6040516020818303038152906040525b9392505050565b60006001600160e01b031982166380ac58cd60e01b14806116c057506001600160e01b03198216635b5e139f60e01b145b806103f157506301ffc9a760e01b6001600160e01b03198316146103f1565b60606103f16001600160a01b03831660145b6060600061170083600261234a565b61170b906002612361565b67ffffffffffffffff81111561172357611723611d82565b6040519080825280601f01601f19166020018201604052801561174d576020820181803683370190505b509050600360fc1b8160008151811061176857611768612374565b60200101906001600160f81b031916908160001a905350600f60fb1b8160018151811061179757611797612374565b60200101906001600160f81b031916908160001a90535060006117bb84600261234a565b6117c6906001612361565b90505b600181111561183e576f181899199a1a9b1b9c1cb0b131b232b360811b85600f16601081106117fa576117fa612374565b1a60f81b82828151811061181057611810612374565b60200101906001600160f81b031916908160001a90535060049490941c936118378161238a565b90506117c9565b5083156116885760405162461bcd60e51b815260206004820181905260248201527f537472696e67733a20686578206c656e67746820696e73756666696369656e746044820152606401610524565b6001600160a01b0382166118e35760405162461bcd60e51b815260206004820181905260248201527f4552433732313a206d696e7420746f20746865207a65726f20616464726573736044820152606401610524565b6000818152600260205260409020546001600160a01b0316156119485760405162461bcd60e51b815260206004820152601c60248201527f4552433732313a20746f6b656e20616c7265616479206d696e746564000000006044820152606401610524565b611956600083836001611415565b6000818152600260205260409020546001600160a01b0316156119bb5760405162461bcd60e51b815260206004820152601c60248201527f4552433732313a20746f6b656e20616c7265616479206d696e746564000000006044820152606401610524565b6001600160a01b038216600081815260036020908152604080832080546001019055848352600290915280822080546001600160a01b0319168417905551839291907fddf252ad1be2c89b69c2b068fc378daa952ba7f163c4a11628f55a4df523b3ef908290a45050565b60606000611a3383611ab9565b600101905060008167ffffffffffffffff811115611a5357611a53611d82565b6040519080825280601f01601f191660200182016040528015611a7d576020820181803683370190505b5090508181016020015b600019016f181899199a1a9b1b9c1cb0b131b232b360811b600a86061a8153600a8504945084611a8757509392505050565b60008072184f03e93ff9f4daa797ed6e38ed64bf6a1f0160401b8310611af85772184f03e93ff9f4daa797ed6e38ed64bf6a1f0160401b830492506040015b6d04ee2d6d415b85acef81000000008310611b24576d04ee2d6d415b85acef8100000000830492506020015b662386f26fc100008310611b4257662386f26fc10000830492506010015b6305f5e1008310611b5a576305f5e100830492506008015b6127108310611b6e57612710830492506004015b60648310611b80576064830492506002015b600a83106103f15760010192915050565b6001600160e01b031981168114610daa57600080fd5b600060208284031215611bb957600080fd5b813561168881611b91565b60005b83811015611bdf578181015183820152602001611bc7565b50506000910152565b60008151808452611c00816020860160208601611bc4565b601f01601f19169290920160200192915050565b6020815260006116886020830184611be8565b600060208284031215611c3957600080fd5b5035919050565b80356001600160a01b0381168114611c5757600080fd5b919050565b60008060408385031215611c6f57600080fd5b611c7883611c40565b946020939093013593505050565b600080600060608486031215611c9b57600080fd5b611ca484611c40565b9250611cb260208501611c40565b9150604084013590509250925092565b608081526000611cd56080830187611be8565b8560208401528281036040840152611ced8186611be8565b91505082606083015295945050505050565b60008060408385031215611d1257600080fd5b82359150611d2260208401611c40565b90509250929050565b600060208284031215611d3d57600080fd5b61168882611c40565b60008060408385031215611d5957600080fd5b611d6283611c40565b915060208301358015158114611d7757600080fd5b809150509250929050565b634e487b7160e01b600052604160045260246000fd5b600067ffffffffffffffff80841115611db357611db3611d82565b604051601f8501601f19908116603f01168101908282118183101715611ddb57611ddb611d82565b81604052809350858152868686011115611df457600080fd5b858560208301376000602087830101525050509392505050565b600082601f830112611e1f57600080fd5b61168883833560208501611d98565b600080600080600060a08688031215611e4657600080fd5b611e4f86611c40565b9450602086013567ffffffffffffffff80821115611e6c57600080fd5b611e7889838a01611e0e565b95506040880135915080821115611e8e57600080fd5b611e9a89838a01611e0e565b9450606088013593506080880135915080821115611eb757600080fd5b50611ec488828901611e0e565b9150509295509295909350565b60008060008060808587031215611ee757600080fd5b611ef085611c40565b9350611efe60208601611c40565b925060408501359150606085013567ffffffffffffffff811115611f2157600080fd5b8501601f81018713611f3257600080fd5b611f4187823560208401611d98565b91505092959194509250565b60008060408385031215611f6057600080fd5b611f6983611c40565b9150611d2260208401611c40565b6020808252825182820181905260009190848201906040850190845b81811015611faf57835183529284019291840191600101611f93565b50909695505050505050565b600181811c90821680611fcf57607f821691505b602082108103611fef57634e487b7160e01b600052602260045260246000fd5b50919050565b6020808252602d908201527f4552433732313a2063616c6c6572206973206e6f7420746f6b656e206f776e6560408201526c1c881bdc88185c1c1c9bdd9959609a1b606082015260800190565b634e487b7160e01b600052601160045260246000fd5b60006001820161206a5761206a612042565b5060010190565b601f8211156105c557600081815260208120601f850160051c810160208610156120985750805b601f850160051c820191505b818110156120b7578281556001016120a4565b505050505050565b815167ffffffffffffffff8111156120d9576120d9611d82565b6120ed816120e78454611fbb565b84612071565b602080601f831160018114612122576000841561210a5750858301515b600019600386901b1c1916600185901b1785556120b7565b600085815260208120601f198616915b8281101561215157888601518255948401946001909101908401612132565b508582101561216f5787850151600019600388901b60f8161c191681555b5050505050600190811b01905550565b6060815260006121926060830186611be8565b82810360208401526121a48186611be8565b915050826040830152949350505050565b60208082526025908201527f4552433732313a207472616e736665722066726f6d20696e636f72726563742060408201526437bbb732b960d91b606082015260800190565b60208082526032908201527f4552433732313a207472616e7366657220746f206e6f6e20455243373231526560408201527131b2b4bb32b91034b6b83632b6b2b73a32b960711b606082015260800190565b6000835161225e818460208801611bc4565b835190830190612272818360208801611bc4565b01949350505050565b7f416363657373436f6e74726f6c3a206163636f756e74200000000000000000008152600083516122b3816017850160208801611bc4565b7001034b99036b4b9b9b4b733903937b6329607d1b60179184019182015283516122e4816028840160208801611bc4565b01602801949350505050565b6001600160a01b038581168252841660208201526040810183905260806060820181905260009061232390830184611be8565b9695505050505050565b60006020828403121561233f57600080fd5b815161168881611b91565b80820281158282048414176103f1576103f1612042565b808201808211156103f1576103f1612042565b634e487b7160e01b600052603260045260246000fd5b60008161239957612399612042565b50600019019056fea2646970667358221220215c8ff4e332c88ca2aa255aa0740e059dc9088e08fa7a43c6b55006e420242064736f6c63430008140033",
  "linkReferences": {},
  "deployedLinkReferences": {}
}